:100000001DC00FC236C035C034C033C032C031C08D
:1000100030C0A7C12EC02DC02CC02BC02AC029C003
:1000200028C027C026C02FC038C041C049C053C017
:100030005DC066C06FC079C082C08BC011241FBE76
:10004000CFE5D4E0DEBFCDBF10E0A0E6B0E0E4EF46
:10005000F6E002C005900D92A236B107D9F720E074
:10006000A2E6B0E001C01D92AF36B207E1F738D288
:100070003FC3C6CF90E08B30910508F06BC0FC0108
:10008000ED5EFF4F099482B3877682BB85B3857F8F
:1000900085BBAA9AC098AC9A089582B3886982BB3E
:1000A00085B3857F85BBAA9AC09AAC9A089582B31E
:1000B000877682BBA998AB9AAA98C09AAC9A089501
:1000C00082B3877782BB949A85B3857F85BBAA98D4
:1000D000C09AAC9A089582B3886882BB949A85B31B
:1000E000857F85BBAA98C098AC9A089582B387771C
:1000F00082BB949AA99AAB98AA98C098AC9A089592
:1001000082B3877782BB9498A99AAB98AA98C09833
:10011000AC9A0895979882B3886182BB85B3857F36
:1001200085BBAA9AC09AAC9A089582B3877782BB9E
:100130009498A998AB98AA98C098AC9A089582B35D
:10014000877782BB949AA998AB98AA98C098AC9AE2
:100150000895AC980895AC019C0136952795369585
:10016000279536952795A5ECB0E2A2D29295829577
:100170008F7089279F70892780936E0068EE73E0E7
:10018000869F9001879F300D969F300D1124421B52
:10019000530B9A013695279536952795ABE7B4E131
:1001A00087D29695879580936D0064E6689F90014D
:1001B000699F300D1124421B530B9A01ADECBCEC2E
:1001C00077D29695879596958795969587958093FE
:1001D0006C009C01220F331F880F991F880F991FF5
:1001E000880F991F820F931F481B590B40936B0078
:1001F000089520B3237020936300822F90E0880F2E
:10020000991F880F991F30916200832B81309105CF
:1002100019F0049781F15DC08091690090916A00A6
:10022000019690936A00809369008091610081300B
:1002300031F4809168008F5F809368004AC08230FB
:1002400031F4809167008F5F8093670042C08430F3
:1002500031F4809166008F5F809366003AC08530EC
:10026000C1F58091640090916500019690936500BE
:10027000809364002EC08091690090916A0001977C
:1002800090936A008093690080916100813031F41D
:10029000809168008150809368001BC0823031F4E7
:1002A0008091670081508093670013C0843031F4DF
:1002B000809166008150809366000BC0853049F4C0
:1002C0008091640090916500019790936500809300
:1002D00064008091690090916A008F3F910529F038
:1002E00024F010926A001092690080916900909148
:1002F0006A00992334F48FEF90E090936A00809322
:100300006900809168008091680080916700809109
:1003100067008091660086311CF085E1809366005D
:1003200080916600882314F4109266008091640026
:10033000909165008F3F910539F034F08FEF90E098
:1003400090936500809364008091640090916500B3
:10035000992324F4109265001092640020936200A7
:1003600008951F920F920FB60F9211242F933F936F
:100370004F935F936F937F938F939F93AF93BF93AD
:10038000EF93FF9380916000823089F018F4813000
:1003900031F02AC0833099F08430F9F025C0969866
:1003A000959AC59AA89A80916E0064DE1DC0969AAF
:1003B0009598C59AA89A80916D005CDE15C0969AB2
:1003C000959AC59AA89880916C0054DE809161003E
:1003D000853051F48AE04EDE07C0969A959AC5980A
:1003E000A89A80916B0046DE809160008F5F8093B9
:1003F000600080916000853018F081E0809360009B
:10040000FF91EF91BF91AF919F918F917F916F91EC
:100410005F914F913F912F910F900FBE0F901F90C2
:1004200018951F920F920FB60F9211248F938091FF
:1004300061008F5F863018F48093610003C081E013
:10044000809361008F910F900FBE0F901F901895B1
:1004500087B38F6287BB84B38F6184BB81B3886F9E
:1004600081BB88B3816288BB85B38F6185BB82B352
:10047000886F82BB81B3887F81BB82B3887F82BB58
:1004800085B7826085BF8BB780648BBF83B784607C
:1004900083BF12BE89B7816089BF8FB581608FBD70
:1004A0008FB5806A8FBD8EB583608EBD1DBC1CBCB0
:1004B0001BBC1ABC19BC18BC85B5856085BD85B54B
:1004C000886485BD85B5806285BD14BC87B18660B2
:1004D00087B93D98379A86B1876086B9359A08956D
:1004E000B7DF78940F2EF4E6FF2EF02D0FEF13E018
:1004F000CFEFD0E080916100833009F456C028F43A
:10050000813051F0823061F1F7CF843009F474C04A
:10051000853009F491C0F0CF81E090E01CDE2FEF30
:1005200083ED90E3215080409040E1F700C000004F
:10053000809161008130F1F68091680090E09BBD70
:100540008ABD80916800F89EC0011124BE019DD033
:10055000CB0101DE4EDE80916100813069F3CACFAC
:1005600082E090E0F8DD2FEF83ED90E321508040B2
:100570009040E1F700C0000080916100823009F0F6
:10058000B9CF8091670090E099BD88BD80916700E8
:10059000F89EC0011124BE0178D0CB01DCDD29DE3C
:1005A00080916100823069F3A5CF83E090E0D3DDD4
:1005B0002FEF83ED90E3215080409040E1F700C0A1
:1005C000000080916100833009F094CF369A349B0B
:1005D00005C084B195B199BD88BD349A80916700FA
:1005E000F89EC0011124B80150D0CB01B4DD809138
:1005F0006100833059F37ECF84E090E0ACDD2FEFD3
:1006000083ED90E3215080409040E1F700C000006E
:1006100080916100843009F06DCF8091660083BDC8
:1006200080916600992787FD909595DDE2DD8091A8
:100630006100843091F35ECF85E090E08CDD2FEF98
:1006400083ED90E3215080409040E1F700C000002E
:1006500080916100853009F04DCF809164009091C8
:10066000650083BD2091640030916500F29EC00159
:10067000F39E900D1124BE0108D0CB016CDDB9DDD5
:1006800080916100853049F335CF97FB072E16F432
:10069000009406D077FD08D017D007FC05D03EF4B3
:1006A000909581959F4F0895709561957F4F08951E
:1006B000A29FB001B39FC001A39F01D0B29F700D54
:1006C000811D1124911D0895AA1BBB1B51E107C078
:1006D000AA1FBB1FA617B70710F0A61BB70B881FD2
:1006E000991F5A95A9F780959095BC01CD01089561
:0406F000F894FFCFAC
:0206F400010102
:00000001FF
